{
  "abi": [
    {
      "inputs": [
        {
          "internalType": "contract ClubLoot",
          "name": "lootMaster_",
          "type": "address"
        },
        {
          "internalType": "contract KaliClubSig",
          "name": "clubMaster_",
          "type": "address"
        }
      ],
      "stateMutability": "nonpayable",
      "type": "constructor"
    },
    {
      "inputs": [],
      "name": "Create2fail",
      "type": "error"
    },
    {
      "anonymous": false,
      "inputs": [
        {
          "components": [
            {
              "internalType": "address",
              "name": "to",
              "type": "address"
            },
            {
              "internalType": "uint256",
              "name": "value",
              "type": "uint256"
            },
            {
              "internalType": "bytes",
              "name": "data",
              "type": "bytes"
            },
            {
              "internalType": "bool",
              "name": "deleg",
              "type": "bool"
            }
          ],
          "indexed": false,
          "internalType": "struct Call[]",
          "name": "calls_",
          "type": "tuple[]"
        },
        {
          "components": [
            {
              "internalType": "address",
              "name": "signer",
              "type": "address"
            },
            {
              "internalType": "uint256",
              "name": "id",
              "type": "uint256"
            },
            {
              "internalType": "uint256",
              "name": "loot",
              "type": "uint256"
            }
          ],
          "indexed": false,
          "internalType": "struct IClub.Club[]",
          "name": "club_",
          "type": "tuple[]"
        },
        {
          "indexed": false,
          "internalType": "uint256",
          "name": "quorum",
          "type": "uint256"
        },
        {
          "indexed": false,
          "internalType": "uint256",
          "name": "redemptionStart",
          "type": "uint256"
        },
        {
          "indexed": false,
          "internalType": "bytes32",
          "name": "name",
          "type": "bytes32"
        },
        {
          "indexed": false,
          "internalType": "bytes32",
          "name": "symbol",
          "type": "bytes32"
        },
        {
          "indexed": false,
          "internalType": "bool",
          "name": "lootPaused",
          "type": "bool"
        },
        {
          "indexed": false,
          "internalType": "bool",
          "name": "signerPaused",
          "type": "bool"
        },
        {
          "indexed": false,
          "internalType": "string",
          "name": "baseURI",
          "type": "string"
        },
        {
          "indexed": false,
          "internalType": "string",
          "name": "docs",
          "type": "string"
        }
      ],
      "name": "ClubDeployed",
      "type": "event"
    },
    {
      "inputs": [
        {
          "components": [
            {
              "internalType": "address",
              "name": "to",
              "type": "address"
            },
            {
              "internalType": "uint256",
              "name": "value",
              "type": "uint256"
            },
            {
              "internalType": "bytes",
              "name": "data",
              "type": "bytes"
            },
            {
              "internalType": "bool",
              "name": "deleg",
              "type": "bool"
            }
          ],
          "internalType": "struct Call[]",
          "name": "calls_",
          "type": "tuple[]"
        },
        {
          "components": [
            {
              "internalType": "address",
              "name": "signer",
              "type": "address"
            },
            {
              "internalType": "uint256",
              "name": "id",
              "type": "uint256"
            },
            {
              "internalType": "uint256",
              "name": "loot",
              "type": "uint256"
            }
          ],
          "internalType": "struct IClub.Club[]",
          "name": "club_",
          "type": "tuple[]"
        },
        {
          "internalType": "uint256",
          "name": "quorum_",
          "type": "uint256"
        },
        {
          "internalType": "uint256",
          "name": "redemptionStart_",
          "type": "uint256"
        },
        {
          "internalType": "bytes32",
          "name": "name_",
          "type": "bytes32"
        },
        {
          "internalType": "bytes32",
          "name": "symbol_",
          "type": "bytes32"
        },
        {
          "internalType": "bool",
          "name": "lootPaused_",
          "type": "bool"
        },
        {
          "internalType": "bool",
          "name": "signerPaused_",
          "type": "bool"
        },
        {
          "internalType": "string",
          "name": "baseURI_",
          "type": "string"
        },
        {
          "internalType": "string",
          "name": "docs_",
          "type": "string"
        }
      ],
      "name": "deployClubSig",
      "outputs": [
        {
          "internalType": "contract ClubLoot",
          "name": "loot",
          "type": "address"
        },
        {
          "internalType": "contract KaliClubSig",
          "name": "clubSig",
          "type": "address"
        }
      ],
      "stateMutability": "payable",
      "type": "function"
    },
    {
      "inputs": [
        {
          "internalType": "bytes32",
          "name": "name",
          "type": "bytes32"
        },
        {
          "internalType": "bytes32",
          "name": "symbol",
          "type": "bytes32"
        }
      ],
      "name": "determineClones",
      "outputs": [
        {
          "internalType": "address",
          "name": "loot",
          "type": "address"
        },
        {
          "internalType": "address",
          "name": "club",
          "type": "address"
        },
        {
          "internalType": "bool",
          "name": "deployed",
          "type": "bool"
        }
      ],
      "stateMutability": "view",
      "type": "function"
    },
    {
      "inputs": [
        {
          "internalType": "bytes[]",
          "name": "data",
          "type": "bytes[]"
        }
      ],
      "name": "multicall",
      "outputs": [
        {
          "internalType": "bytes[]",
          "name": "results",
          "type": "bytes[]"
        }
      ],
      "stateMutability": "payable",
      "type": "function"
    }
  ],
  "bytecode": {
    "object": "0x60c060405234801561001057600080fd5b506040516111ae3803806111ae83398101604081905261002f9161005e565b6001600160a01b039182166080521660a052610098565b6001600160a01b038116811461005b57600080fd5b50565b6000806040838503121561007157600080fd5b825161007c81610046565b602084015190925061008d81610046565b809150509250929050565b60805160a0516110e36100cb600039600081816101b80152610411015260008181610125015261038601526110e36000f3fe6080604052600436106100345760003560e01c8063214457931461003957806373966dda14610071578063ac9650d8146100b9575b600080fd5b61004c610047366004610b4f565b6100d9565b604080516001600160a01b039384168152929091166020830152015b60405180910390f35b34801561007d57600080fd5b5061009161008c366004610c46565b610338565b604080516001600160a01b039485168152939092166020840152151590820152606001610068565b6100cc6100c7366004610c68565b610444565b6040516100689190610d39565b60408051602081018890529081018690526001600160c01b03194660c01b166060820152600090819061014c90899060680160408051601f198184030181529190526001600160a01b037f00000000000000000000000000000000000000000000000000000000000000001691906105b4565b91506101df888989854660405160200161019e9493929190938452602084019290925260601b6bffffffffffffffffffffffff1916604083015260c01b6001600160c01b0319166054820152605c0190565b60408051601f198184030181529190526001600160a01b037f00000000000000000000000000000000000000000000000000000000000000001691906105b4565b6040517fdfef9fa40000000000000000000000000000000000000000000000000000000081529091506001600160a01b0383169063dfef9fa49061022b9084908f908b90600401610df5565b600060405180830381600087803b15801561024557600080fd5b505af1158015610259573d6000803e3d6000fd5b50506040517f678452790000000000000000000000000000000000000000000000000000000081526001600160a01b0384169250636784527991506102ae908f908f908f908f908c908c908c90600401610eb5565b600060405180830381600087803b1580156102c857600080fd5b505af11580156102dc573d6000803e3d6000fd5b505050507f0dd84a65e47c6556cb82fd99fed5566b49716a8bc6840898b3ca1e0afa7815fa8c8c8c8c8c8c8c8c8c8c6040516103219a99989796959493929190610f24565b60405180910390a19a509a98505050505050505050565b60408051602081018490529081018290526001600160c01b03194660c01b166060820152600090819081906103ad90869060680160408051601f198184030181529190526001600160a01b037f0000000000000000000000000000000000000000000000000000000000000000169190610618565b6040805160208101899052908101879052606083811b6bffffffffffffffffffffffff1916908201524660c01b6001600160c01b03191660748201529194509150610438908690607c0160408051601f198184030181529190526001600160a01b037f0000000000000000000000000000000000000000000000000000000000000000169190610618565b93969095509293505050565b60608167ffffffffffffffff81111561045f5761045f61083f565b60405190808252806020026020018201604052801561049257816020015b606081526020019060019003908161047d5790505b50905060005b828110156105ad57600080308686858181106104b6576104b6610faf565b90506020028101906104c89190610fc5565b6040516104d6929190611013565b600060405180830381855af49150503d8060008114610511576040519150601f19603f3d011682016040523d82523d6000602084013e610516565b606091505b5091509150816105855760448151101561052f57600080fd5b600481019050808060200190518101906105499190611023565b6040517f08c379a000000000000000000000000000000000000000000000000000000000815260040161057c919061109a565b60405180910390fd5b8084848151811061059857610598610faf565b60209081029190910101525050600101610498565b5092915050565b60008060006105c386856106b0565b915091508481836000f592506001600160a01b03831661060f576040517f5f9f991000000000000000000000000000000000000000000000000000000000815260040160405180910390fd5b50509392505050565b60008060008061062887866106b0565b9020604080517fff000000000000000000000000000000000000000000000000000000000000006020808301919091523060601b6bffffffffffffffffffffffff1916602183015260358201999099526055808201939093528151808203909301835260750190528051960195909520966001600160a01b0388163b15159650945050505050565b80516040517f610000000000000000000000000000000000000000000000000000000000000081526069820160f081811b60018401527f3d81600a3d39f336602f57343d527f000000000000000000000000000000000060038401527f9e4ac34f21c619cefc926c8bd93b54bf5a39c7ab2127a895af1cc0691d7e3dff60128401527f60203da13d3df35b3d3d3d3d363d3d3761000000000000000000000000000000603284015260028401901b604383018190527f60673639366100000000000000000000000000000000000000000000000000006045840152604b8301527f013d730000000000000000000000000000000000000000000000000000000000604d830152606085901b60508301527f5af43d3d93803e606557fd5bf3000000000000000000000000000000000000006064830152909160738101916020850182607186015b602082106108165782518152602092830192601f1990920191016107f7565b915160001960208390036101000a011916825260f09390931b9201919091525090939092509050565b634e487b7160e01b600052604160045260246000fd5b6040516080810167ffffffffffffffff811182821017156108785761087861083f565b60405290565b6040516060810167ffffffffffffffff811182821017156108785761087861083f565b604051601f8201601f1916810167ffffffffffffffff811182821017156108ca576108ca61083f565b604052919050565b600067ffffffffffffffff8211156108ec576108ec61083f565b5060051b60200190565b80356001600160a01b038116811461090d57600080fd5b919050565b600067ffffffffffffffff82111561092c5761092c61083f565b50601f01601f191660200190565b600061094d61094884610912565b6108a1565b905082815283838301111561096157600080fd5b828260208301376000602084830101529392505050565b8035801515811461090d57600080fd5b600082601f83011261099957600080fd5b813560206109a9610948836108d2565b82815260059290921b840181019181810190868411156109c857600080fd5b8286015b84811015610a8257803567ffffffffffffffff808211156109ed5760008081fd5b908801906080828b03601f1901811315610a075760008081fd5b610a0f610855565b610a1a8885016108f6565b81526040808501358983015260608086013585811115610a3a5760008081fd5b86019450603f85018e13610a4e5760008081fd5b610a5e8e8b87013584880161093a565b82840152610a6d848701610978565b908301525086525050509183019183016109cc565b509695505050505050565b600082601f830112610a9e57600080fd5b81356020610aae610948836108d2565b82815260609283028501820192828201919087851115610acd57600080fd5b8387015b85811015610b1b5781818a031215610ae95760008081fd5b610af161087e565b610afa826108f6565b81528186013586820152604080830135908201528452928401928101610ad1565b5090979650505050505050565b600082601f830112610b3957600080fd5b610b488383356020850161093a565b9392505050565b6000806000806000806000806000806101408b8d031215610b6f57600080fd5b8a3567ffffffffffffffff80821115610b8757600080fd5b610b938e838f01610988565b9b5060208d0135915080821115610ba957600080fd5b610bb58e838f01610a8d565b9a5060408d0135995060608d0135985060808d0135975060a08d01359650610bdf60c08e01610978565b9550610bed60e08e01610978565b94506101008d0135915080821115610c0457600080fd5b610c108e838f01610b28565b93506101208d0135915080821115610c2757600080fd5b50610c348d828e01610b28565b9150509295989b9194979a5092959850565b60008060408385031215610c5957600080fd5b50508035926020909101359150565b60008060208385031215610c7b57600080fd5b823567ffffffffffffffff80821115610c9357600080fd5b818501915085601f830112610ca757600080fd5b813581811115610cb657600080fd5b8660208260051b8501011115610ccb57600080fd5b60209290920196919550909350505050565b60005b83811015610cf8578181015183820152602001610ce0565b83811115610d07576000848401525b50505050565b60008151808452610d25816020860160208601610cdd565b601f01601f19169290920160200192915050565b6000602080830181845280855180835260408601915060408160051b870101925083870160005b82811015610d8e57603f19888603018452610d7c858351610d0d565b94509285019290850190600101610d60565b5092979650505050505050565b600081518084526020808501945080840160005b83811015610dea57815180516001600160a01b0316885283810151848901526040908101519088015260609096019590820190600101610daf565b509495945050505050565b6001600160a01b0384168152606060208201526000610e176060830185610d9b565b90508215156040830152949350505050565b600081518084526020808501808196508360051b8101915082860160005b85811015610ea8578284038952815160806001600160a01b03825116865286820151878701526040808301518282890152610e8483890182610d0d565b60609485015115159890940197909752505098850198935090840190600101610e47565b5091979650505050505050565b60e081526000610ec860e083018a610e29565b8281036020840152610eda818a610d9b565b9050876040840152866060840152851515608084015282810360a0840152610f028186610d0d565b905082810360c0840152610f168185610d0d565b9a9950505050505050505050565b6000610140808352610f388184018e610e29565b90508281036020840152610f4c818d610d9b565b90508a60408401528960608401528860808401528760a084015286151560c084015285151560e0840152828103610100840152610f898186610d0d565b9050828103610120840152610f9e8185610d0d565b9d9c50505050505050505050505050565b634e487b7160e01b600052603260045260246000fd5b6000808335601e19843603018112610fdc57600080fd5b83018035915067ffffffffffffffff821115610ff757600080fd5b60200191503681900382131561100c57600080fd5b9250929050565b8183823760009101908152919050565b60006020828403121561103557600080fd5b815167ffffffffffffffff81111561104c57600080fd5b8201601f8101841361105d57600080fd5b805161106b61094882610912565b81815285602083850101111561108057600080fd5b611091826020830160208601610cdd565b95945050505050565b602081526000610b486020830184610d0d56fea2646970667358221220a22a0d72ded581e48afad133f8eafe723401c9d257fe74ce80b7ddd1b2d5603664736f6c634300080d0033",
    "linkReferences": {}
  }
}