{
  "abi": [
    {
      "inputs": [],
      "name": "AlreadyInitialized",
      "type": "error"
    },
    {
      "inputs": [],
      "name": "AlreadyMinted",
      "type": "error"
    },
    {
      "inputs": [],
      "name": "ETHtransferFailed",
      "type": "error"
    },
    {
      "inputs": [],
      "name": "ExecuteFailed",
      "type": "error"
    },
    {
      "inputs": [],
      "name": "Forbidden",
      "type": "error"
    },
    {
      "inputs": [],
      "name": "InvalidRecipient",
      "type": "error"
    },
    {
      "inputs": [],
      "name": "NoArrayParity",
      "type": "error"
    },
    {
      "inputs": [],
      "name": "NoRedemptionYet",
      "type": "error"
    },
    {
      "inputs": [],
      "name": "NotMinted",
      "type": "error"
    },
    {
      "inputs": [],
      "name": "NotOwner",
      "type": "error"
    },
    {
      "inputs": [],
      "name": "Paused",
      "type": "error"
    },
    {
      "inputs": [],
      "name": "QuorumExceedsSigs",
      "type": "error"
    },
    {
      "inputs": [],
      "name": "TransferFailed",
      "type": "error"
    },
    {
      "inputs": [],
      "name": "WrongAssetOrder",
      "type": "error"
    },
    {
      "inputs": [],
      "name": "WrongSigner",
      "type": "error"
    },
    {
      "anonymous": false,
      "inputs": [
        {
          "indexed": true,
          "internalType": "address",
          "name": "owner",
          "type": "address"
        },
        {
          "indexed": true,
          "internalType": "address",
          "name": "spender",
          "type": "address"
        },
        {
          "indexed": true,
          "internalType": "uint256",
          "name": "id",
          "type": "uint256"
        }
      ],
      "name": "Approval",
      "type": "event"
    },
    {
      "anonymous": false,
      "inputs": [
        {
          "indexed": true,
          "internalType": "address",
          "name": "owner",
          "type": "address"
        },
        {
          "indexed": true,
          "internalType": "address",
          "name": "operator",
          "type": "address"
        },
        {
          "indexed": false,
          "internalType": "bool",
          "name": "approved",
          "type": "bool"
        }
      ],
      "name": "ApprovalForAll",
      "type": "event"
    },
    {
      "anonymous": false,
      "inputs": [
        {
          "indexed": false,
          "internalType": "string",
          "name": "docs",
          "type": "string"
        }
      ],
      "name": "DocsSet",
      "type": "event"
    },
    {
      "anonymous": false,
      "inputs": [
        {
          "indexed": true,
          "internalType": "address",
          "name": "to",
          "type": "address"
        },
        {
          "indexed": false,
          "internalType": "uint256",
          "name": "value",
          "type": "uint256"
        },
        {
          "indexed": false,
          "internalType": "bytes",
          "name": "data",
          "type": "bytes"
        }
      ],
      "name": "Execute",
      "type": "event"
    },
    {
      "anonymous": false,
      "inputs": [
        {
          "components": [
            {
              "internalType": "address",
              "name": "signer",
              "type": "address"
            },
            {
              "internalType": "uint256",
              "name": "id",
              "type": "uint256"
            },
            {
              "internalType": "uint256",
              "name": "loot",
              "type": "uint256"
            }
          ],
          "indexed": false,
          "internalType": "struct IClub.Club[]",
          "name": "club",
          "type": "tuple[]"
        },
        {
          "indexed": false,
          "internalType": "bool[]",
          "name": "mints",
          "type": "bool[]"
        },
        {
          "indexed": false,
          "internalType": "uint256",
          "name": "quorum",
          "type": "uint256"
        }
      ],
      "name": "Govern",
      "type": "event"
    },
    {
      "anonymous": false,
      "inputs": [
        {
          "indexed": true,
          "internalType": "address",
          "name": "account",
          "type": "address"
        },
        {
          "indexed": false,
          "internalType": "bool",
          "name": "approved",
          "type": "bool"
        }
      ],
      "name": "GovernorSet",
      "type": "event"
    },
    {
      "anonymous": false,
      "inputs": [
        {
          "indexed": false,
          "internalType": "bool",
          "name": "paused",
          "type": "bool"
        }
      ],
      "name": "PauseSet",
      "type": "event"
    },
    {
      "anonymous": false,
      "inputs": [
        {
          "indexed": false,
          "internalType": "uint256",
          "name": "redemptionStart",
          "type": "uint256"
        }
      ],
      "name": "RedemptionStartSet",
      "type": "event"
    },
    {
      "anonymous": false,
      "inputs": [
        {
          "indexed": true,
          "internalType": "address",
          "name": "from",
          "type": "address"
        },
        {
          "indexed": true,
          "internalType": "address",
          "name": "to",
          "type": "address"
        },
        {
          "indexed": true,
          "internalType": "uint256",
          "name": "id",
          "type": "uint256"
        }
      ],
      "name": "Transfer",
      "type": "event"
    },
    {
      "anonymous": false,
      "inputs": [
        {
          "indexed": false,
          "internalType": "string",
          "name": "uri",
          "type": "string"
        }
      ],
      "name": "URIset",
      "type": "event"
    },
    {
      "inputs": [],
      "name": "DOMAIN_SEPARATOR",
      "outputs": [
        {
          "internalType": "bytes32",
          "name": "",
          "type": "bytes32"
        }
      ],
      "stateMutability": "view",
      "type": "function"
    },
    {
      "inputs": [
        {
          "internalType": "address",
          "name": "spender",
          "type": "address"
        },
        {
          "internalType": "uint256",
          "name": "id",
          "type": "uint256"
        }
      ],
      "name": "approve",
      "outputs": [],
      "stateMutability": "payable",
      "type": "function"
    },
    {
      "inputs": [
        {
          "internalType": "address",
          "name": "",
          "type": "address"
        }
      ],
      "name": "balanceOf",
      "outputs": [
        {
          "internalType": "uint256",
          "name": "",
          "type": "uint256"
        }
      ],
      "stateMutability": "view",
      "type": "function"
    },
    {
      "inputs": [
        {
          "components": [
            {
              "internalType": "address",
              "name": "to",
              "type": "address"
            },
            {
              "internalType": "uint256",
              "name": "value",
              "type": "uint256"
            },
            {
              "internalType": "bytes",
              "name": "data",
              "type": "bytes"
            },
            {
              "internalType": "bool",
              "name": "deleg",
              "type": "bool"
            }
          ],
          "internalType": "struct Call[]",
          "name": "calls",
          "type": "tuple[]"
        }
      ],
      "name": "batchExecute",
      "outputs": [
        {
          "internalType": "bool[]",
          "name": "successes",
          "type": "bool[]"
        }
      ],
      "stateMutability": "payable",
      "type": "function"
    },
    {
      "inputs": [],
      "name": "docs",
      "outputs": [
        {
          "internalType": "string",
          "name": "",
          "type": "string"
        }
      ],
      "stateMutability": "view",
      "type": "function"
    },
    {
      "inputs": [
        {
          "internalType": "address",
          "name": "to",
          "type": "address"
        },
        {
          "internalType": "uint256",
          "name": "value",
          "type": "uint256"
        },
        {
          "internalType": "bytes",
          "name": "data",
          "type": "bytes"
        },
        {
          "internalType": "bool",
          "name": "deleg",
          "type": "bool"
        },
        {
          "components": [
            {
              "internalType": "uint8",
              "name": "v",
              "type": "uint8"
            },
            {
              "internalType": "bytes32",
              "name": "r",
              "type": "bytes32"
            },
            {
              "internalType": "bytes32",
              "name": "s",
              "type": "bytes32"
            }
          ],
          "internalType": "struct Signature[]",
          "name": "sigs",
          "type": "tuple[]"
        }
      ],
      "name": "execute",
      "outputs": [
        {
          "internalType": "bool",
          "name": "success",
          "type": "bool"
        }
      ],
      "stateMutability": "payable",
      "type": "function"
    },
    {
      "inputs": [
        {
          "internalType": "uint256",
          "name": "",
          "type": "uint256"
        }
      ],
      "name": "getApproved",
      "outputs": [
        {
          "internalType": "address",
          "name": "",
          "type": "address"
        }
      ],
      "stateMutability": "view",
      "type": "function"
    },
    {
      "inputs": [
        {
          "internalType": "address",
          "name": "to",
          "type": "address"
        },
        {
          "internalType": "uint256",
          "name": "value",
          "type": "uint256"
        },
        {
          "internalType": "bytes",
          "name": "data",
          "type": "bytes"
        },
        {
          "internalType": "bool",
          "name": "deleg",
          "type": "bool"
        },
        {
          "internalType": "uint256",
          "name": "tx_nonce",
          "type": "uint256"
        }
      ],
      "name": "getDigest",
      "outputs": [
        {
          "internalType": "bytes32",
          "name": "",
          "type": "bytes32"
        }
      ],
      "stateMutability": "view",
      "type": "function"
    },
    {
      "inputs": [
        {
          "components": [
            {
              "internalType": "address",
              "name": "signer",
              "type": "address"
            },
            {
              "internalType": "uint256",
              "name": "id",
              "type": "uint256"
            },
            {
              "internalType": "uint256",
              "name": "loot",
              "type": "uint256"
            }
          ],
          "internalType": "struct IClub.Club[]",
          "name": "club_",
          "type": "tuple[]"
        },
        {
          "internalType": "bool[]",
          "name": "mints_",
          "type": "bool[]"
        },
        {
          "internalType": "uint256",
          "name": "quorum_",
          "type": "uint256"
        }
      ],
      "name": "govern",
      "outputs": [],
      "stateMutability": "payable",
      "type": "function"
    },
    {
      "inputs": [
        {
          "internalType": "address",
          "name": "",
          "type": "address"
        }
      ],
      "name": "governor",
      "outputs": [
        {
          "internalType": "bool",
          "name": "",
          "type": "bool"
        }
      ],
      "stateMutability": "view",
      "type": "function"
    },
    {
      "inputs": [
        {
          "components": [
            {
              "internalType": "address",
              "name": "to",
              "type": "address"
            },
            {
              "internalType": "uint256",
              "name": "value",
              "type": "uint256"
            },
            {
              "internalType": "bytes",
              "name": "data",
              "type": "bytes"
            },
            {
              "internalType": "bool",
              "name": "deleg",
              "type": "bool"
            }
          ],
          "internalType": "struct Call[]",
          "name": "calls_",
          "type": "tuple[]"
        },
        {
          "components": [
            {
              "internalType": "address",
              "name": "signer",
              "type": "address"
            },
            {
              "internalType": "uint256",
              "name": "id",
              "type": "uint256"
            },
            {
              "internalType": "uint256",
              "name": "loot",
              "type": "uint256"
            }
          ],
          "internalType": "struct IClub.Club[]",
          "name": "club_",
          "type": "tuple[]"
        },
        {
          "internalType": "uint256",
          "name": "quorum_",
          "type": "uint256"
        },
        {
          "internalType": "uint256",
          "name": "redemptionStart_",
          "type": "uint256"
        },
        {
          "internalType": "bool",
          "name": "signerPaused_",
          "type": "bool"
        },
        {
          "internalType": "string",
          "name": "baseURI_",
          "type": "string"
        },
        {
          "internalType": "string",
          "name": "docs_",
          "type": "string"
        }
      ],
      "name": "init",
      "outputs": [],
      "stateMutability": "payable",
      "type": "function"
    },
    {
      "inputs": [
        {
          "internalType": "address",
          "name": "",
          "type": "address"
        },
        {
          "internalType": "address",
          "name": "",
          "type": "address"
        }
      ],
      "name": "isApprovedForAll",
      "outputs": [
        {
          "internalType": "bool",
          "name": "",
          "type": "bool"
        }
      ],
      "stateMutability": "view",
      "type": "function"
    },
    {
      "inputs": [],
      "name": "loot",
      "outputs": [
        {
          "internalType": "contract IClubLoot",
          "name": "lootAddr",
          "type": "address"
        }
      ],
      "stateMutability": "pure",
      "type": "function"
    },
    {
      "inputs": [
        {
          "internalType": "bytes[]",
          "name": "data",
          "type": "bytes[]"
        }
      ],
      "name": "multicall",
      "outputs": [
        {
          "internalType": "bytes[]",
          "name": "results",
          "type": "bytes[]"
        }
      ],
      "stateMutability": "payable",
      "type": "function"
    },
    {
      "inputs": [],
      "name": "name",
      "outputs": [
        {
          "internalType": "string",
          "name": "",
          "type": "string"
        }
      ],
      "stateMutability": "pure",
      "type": "function"
    },
    {
      "inputs": [],
      "name": "nonce",
      "outputs": [
        {
          "internalType": "uint256",
          "name": "",
          "type": "uint256"
        }
      ],
      "stateMutability": "view",
      "type": "function"
    },
    {
      "inputs": [
        {
          "internalType": "uint256",
          "name": "",
          "type": "uint256"
        }
      ],
      "name": "ownerOf",
      "outputs": [
        {
          "internalType": "address",
          "name": "",
          "type": "address"
        }
      ],
      "stateMutability": "view",
      "type": "function"
    },
    {
      "inputs": [],
      "name": "paused",
      "outputs": [
        {
          "internalType": "bool",
          "name": "",
          "type": "bool"
        }
      ],
      "stateMutability": "view",
      "type": "function"
    },
    {
      "inputs": [],
      "name": "quorum",
      "outputs": [
        {
          "internalType": "uint256",
          "name": "",
          "type": "uint256"
        }
      ],
      "stateMutability": "view",
      "type": "function"
    },
    {
      "inputs": [
        {
          "internalType": "address[]",
          "name": "assets",
          "type": "address[]"
        },
        {
          "internalType": "uint256",
          "name": "lootToBurn",
          "type": "uint256"
        }
      ],
      "name": "ragequit",
      "outputs": [],
      "stateMutability": "payable",
      "type": "function"
    },
    {
      "inputs": [],
      "name": "redemptionStart",
      "outputs": [
        {
          "internalType": "uint256",
          "name": "",
          "type": "uint256"
        }
      ],
      "stateMutability": "view",
      "type": "function"
    },
    {
      "inputs": [
        {
          "internalType": "address",
          "name": "from",
          "type": "address"
        },
        {
          "internalType": "address",
          "name": "to",
          "type": "address"
        },
        {
          "internalType": "uint256",
          "name": "id",
          "type": "uint256"
        }
      ],
      "name": "safeTransferFrom",
      "outputs": [],
      "stateMutability": "payable",
      "type": "function"
    },
    {
      "inputs": [
        {
          "internalType": "address",
          "name": "from",
          "type": "address"
        },
        {
          "internalType": "address",
          "name": "to",
          "type": "address"
        },
        {
          "internalType": "uint256",
          "name": "id",
          "type": "uint256"
        },
        {
          "internalType": "bytes",
          "name": "data",
          "type": "bytes"
        }
      ],
      "name": "safeTransferFrom",
      "outputs": [],
      "stateMutability": "payable",
      "type": "function"
    },
    {
      "inputs": [
        {
          "internalType": "address",
          "name": "operator",
          "type": "address"
        },
        {
          "internalType": "bool",
          "name": "approved",
          "type": "bool"
        }
      ],
      "name": "setApprovalForAll",
      "outputs": [],
      "stateMutability": "payable",
      "type": "function"
    },
    {
      "inputs": [
        {
          "internalType": "string",
          "name": "docs_",
          "type": "string"
        }
      ],
      "name": "setDocs",
      "outputs": [],
      "stateMutability": "payable",
      "type": "function"
    },
    {
      "inputs": [
        {
          "internalType": "address",
          "name": "account",
          "type": "address"
        },
        {
          "internalType": "bool",
          "name": "approved",
          "type": "bool"
        }
      ],
      "name": "setGovernor",
      "outputs": [],
      "stateMutability": "payable",
      "type": "function"
    },
    {
      "inputs": [
        {
          "internalType": "bool",
          "name": "paused_",
          "type": "bool"
        }
      ],
      "name": "setLootPause",
      "outputs": [],
      "stateMutability": "payable",
      "type": "function"
    },
    {
      "inputs": [
        {
          "internalType": "uint256",
          "name": "redemptionStart_",
          "type": "uint256"
        }
      ],
      "name": "setRedemptionStart",
      "outputs": [],
      "stateMutability": "payable",
      "type": "function"
    },
    {
      "inputs": [
        {
          "internalType": "bool",
          "name": "paused_",
          "type": "bool"
        }
      ],
      "name": "setSignerPause",
      "outputs": [],
      "stateMutability": "payable",
      "type": "function"
    },
    {
      "inputs": [
        {
          "internalType": "string",
          "name": "baseURI_",
          "type": "string"
        }
      ],
      "name": "setURI",
      "outputs": [],
      "stateMutability": "payable",
      "type": "function"
    },
    {
      "inputs": [
        {
          "internalType": "bytes4",
          "name": "interfaceId",
          "type": "bytes4"
        }
      ],
      "name": "supportsInterface",
      "outputs": [
        {
          "internalType": "bool",
          "name": "",
          "type": "bool"
        }
      ],
      "stateMutability": "pure",
      "type": "function"
    },
    {
      "inputs": [],
      "name": "symbol",
      "outputs": [
        {
          "internalType": "string",
          "name": "",
          "type": "string"
        }
      ],
      "stateMutability": "pure",
      "type": "function"
    },
    {
      "inputs": [
        {
          "internalType": "uint256",
          "name": "id",
          "type": "uint256"
        }
      ],
      "name": "tokenURI",
      "outputs": [
        {
          "internalType": "string",
          "name": "",
          "type": "string"
        }
      ],
      "stateMutability": "view",
      "type": "function"
    },
    {
      "inputs": [],
      "name": "totalSupply",
      "outputs": [
        {
          "internalType": "uint256",
          "name": "",
          "type": "uint256"
        }
      ],
      "stateMutability": "view",
      "type": "function"
    },
    {
      "inputs": [
        {
          "internalType": "address",
          "name": "from",
          "type": "address"
        },
        {
          "internalType": "address",
          "name": "to",
          "type": "address"
        },
        {
          "internalType": "uint256",
          "name": "id",
          "type": "uint256"
        }
      ],
      "name": "transferFrom",
      "outputs": [],
      "stateMutability": "payable",
      "type": "function"
    }
  ],
  "bytecode": {
    "object": "0x608060405234801561001057600080fd5b50613e00806100206000396000f3fe6080604052600436106102345760003560e01c80636352211e11610138578063affed0e0116100b0578063ccfe2d1a1161007f578063e166791311610064578063e1667913146105b1578063e985e9c5146105d1578063f94d05611461060c57600080fd5b8063ccfe2d1a14610588578063d9647e0b1461059e57600080fd5b8063affed0e01461052c578063b88d4fde14610542578063c87b56dd14610555578063cc15797f1461057557600080fd5b80637af9f010116101075780639b7b2ab0116100ec5780639b7b2ab0146104e4578063a22cb465146104f9578063ac9650d81461050c57600080fd5b80637af9f010146104bc57806395d89b41146104cf57600080fd5b80636352211e14610416578063678452791461044c57806370a082311461045f57806370ec42e81461048c57600080fd5b80631d216f3b116101cb578063513de6cd1161019a57806355f52b8e1161017f57806355f52b8e146103d45780635b1d1c1f146103e75780635c975abb146103fc57600080fd5b8063513de6cd146103ae5780635160696c146103c157600080fd5b80631d216f3b1461036057806323b872dd146103735780633644e5151461038657806342842e0e1461039b57600080fd5b8063095ea7b311610207578063095ea7b3146102f35780631703a0181461030657806318160ddd1461032a57806318fb64bb1461034057600080fd5b806301ffc9a71461023957806302fe53051461026e57806306fdde0314610283578063081812fc146102a5575b600080fd5b34801561024557600080fd5b50610259610254366004612be3565b61061f565b60405190151581526020015b60405180910390f35b61028161027c366004612c50565b6106bc565b005b34801561028f57600080fd5b50610298610744565b6040516102659190612cea565b3480156102b157600080fd5b506102db6102c0366004612cfd565b6002602052600090815260409020546001600160a01b031681565b6040516001600160a01b039091168152602001610265565b610281610301366004612d2d565b610776565b34801561031257600080fd5b5061031c60065481565b604051908152602001610265565b34801561033657600080fd5b5061031c60085481565b61035361034e366004612d9c565b610849565b6040516102659190612dd2565b61025961036e366004612e6d565b610a0a565b610281610381366004612f0b565b610d2a565b34801561039257600080fd5b5061031c610ef9565b6102816103a9366004612f0b565b610f1d565b6102816103bc366004612f47565b610ff0565b6102816103cf366004612fbb565b61136b565b6102816103e2366004612fee565b611408565b3480156103f357600080fd5b50610298611452565b34801561040857600080fd5b506004546102599060ff1681565b34801561042257600080fd5b506102db610431366004612cfd565b6001602052600090815260409020546001600160a01b031681565b61028161045a366004613009565b6114e0565b34801561046b57600080fd5b5061031c61047a3660046130f5565b60006020819052908152604090205481565b34801561049857600080fd5b506102596104a73660046130f5565b600b6020526000908152604090205460ff1681565b6102816104ca366004612cfd565b611730565b3480156104db57600080fd5b506102986117aa565b3480156104f057600080fd5b506102db6117b6565b610281610507366004612fbb565b6117da565b61051f61051a366004612d9c565b611846565b6040516102659190613110565b34801561053857600080fd5b5061031c60055481565b610281610550366004613172565b6119af565b34801561056157600080fd5b50610298610570366004612cfd565b611a72565b610281610583366004612fee565b611be5565b34801561059457600080fd5b5061031c60075481565b6102816105ac3660046131e1565b611c9d565b3480156105bd57600080fd5b5061031c6105cc36600461322d565b61200a565b3480156105dd57600080fd5b506102596105ec3660046132a4565b600360209081526000928352604080842090915290825290205460ff1681565b61028161061a366004612c50565b6120cb565b60006001600160e01b031982167f01ffc9a700000000000000000000000000000000000000000000000000000000148061068257507f80ac58cd000000000000000000000000000000000000000000000000000000006001600160e01b03198316145b806106b657507f5b5e139f000000000000000000000000000000000000000000000000000000006001600160e01b03198316145b92915050565b3330148015906106dc5750336000908152600b602052604090205460ff16155b156106fa57604051631dd2188d60e31b815260040160405180910390fd5b61070660098383612b34565b507fce29678668382e064e92681c6a47e0a1ccf09464321c9d234842ad54e8c3c33682826040516107389291906132f7565b60405180910390a15050565b60606107506000612147565b60405160200161076291815260200190565b604051602081830303815290604052905090565b6000818152600160205260409020546001600160a01b03163381148015906107c257506001600160a01b038116600090815260036020908152604080832033845290915290205460ff16155b156107e057604051631dd2188d60e31b815260040160405180910390fd5b600082815260026020526040808220805473ffffffffffffffffffffffffffffffffffffffff19166001600160a01b0387811691821790925591518593918516917f8c5be1e5ebec7d5bd14f71427d1e84f3dd0314c0f7b2291e5b200ac8c7c3b92591a4505050565b606033301480159061086b5750336000908152600b602052604090205460ff16155b1561088957604051631dd2188d60e31b815260040160405180910390fd5b8167ffffffffffffffff8111156108a2576108a261330b565b6040519080825280602002602001820160405280156108cb578160200160208202803683370190505b50905060005b82811015610a03576109d98484838181106108ee576108ee613321565b90506020028101906109009190613337565b61090e9060208101906130f5565b85858481811061092057610920613321565b90506020028101906109329190613337565b6020013586868581811061094857610948613321565b905060200281019061095a9190613337565b610968906040810190613357565b8080601f0160208091040260200160405190810160405280939291908181526020018383808284376000920191909152508a92508991508790508181106109b1576109b1613321565b90506020028101906109c39190613337565b6109d4906080810190606001612fee565b612169565b8282815181106109eb576109eb613321565b911515602092830291909101909101526001016108d1565b5092915050565b600080610a1d898989898960055461200a565b600654909150600090815b81811015610cd7576000600185898985818110610a4757610a47613321565b610a5d926020606090920201908101915061339e565b8a8a86818110610a6f57610a6f613321565b905060600201602001358b8b87818110610a8b57610a8b613321565b9050606002016040013560405160008152602001604052604051610acb949392919093845260ff9290921660208401526040830152606082015260800190565b6020604051602081039080840390855afa158015610aed573d6000803e3d6000fd5b5050604051601f1901519150506001600160a01b0381163b15610c78577f1626ba7e000000000000000000000000000000000000000000000000000000006001600160a01b038216631626ba7e878b8b87818110610b4d57610b4d613321565b905060600201602001358c8c88818110610b6957610b69613321565b905060600201604001358d8d89818110610b8557610b85613321565b610b9b926020606090920201908101915061339e565b604051602001610be393929190928352602083019190915260f81b7fff0000000000000000000000000000000000000000000000000000000000000016604082015260410190565b6040516020818303038152906040526040518363ffffffff1660e01b8152600401610c0f9291906133c1565b602060405180830381865afa158015610c2c573d6000803e3d6000fd5b505050506040513d601f19601f82011682018060405250810190610c5091906133da565b6001600160e01b03191614610c78576040516353c9973560e11b815260040160405180910390fd5b6001600160a01b0381166000908152602081905260409020541580610caf5750806001600160a01b0316846001600160a01b031610155b15610ccd576040516353c9973560e11b815260040160405180910390fd5b9250600101610a28565b50610d1b8b8b8b8b8080601f0160208091040260200160405190810160405280939291908181526020018383808284376000920191909152508d9250612169915050565b9b9a5050505050505050505050565b60045460ff1615610d67576040517f9e87fac800000000000000000000000000000000000000000000000000000000815260040160405180910390fd5b6000818152600160205260409020546001600160a01b03848116911614610dba576040517f30cd747100000000000000000000000000000000000000000000000000000000815260040160405180910390fd5b6001600160a01b038216610de157604051634e46966960e11b815260040160405180910390fd5b336001600160a01b03841614801590610e1157506000818152600260205260409020546001600160a01b03163314155b8015610e4157506001600160a01b038316600090815260036020908152604080832033845290915290205460ff16155b15610e5f57604051631dd2188d60e31b815260040160405180910390fd5b6001600160a01b0380841660008181526020818152604080832080546000190190559386168083528483208054600190810190915586845260028352858420805473ffffffffffffffffffffffffffffffffffffffff199081169091559252848320805490921681179091559251849392917fddf252ad1be2c89b69c2b068fc378daa952ba7f163c4a11628f55a4df523b3ef91a4505050565b6000610f03612220565b4614610f1657610f11612244565b905090565b50600c5490565b610f28838383610d2a565b6001600160a01b0382163b15610feb57604051630a85bd0160e11b8082523360048301526001600160a01b03858116602484015260448301849052608060648401526000608484015290919084169063150b7a029060a4016020604051808303816000875af1158015610f9f573d6000803e3d6000fd5b505050506040513d601f19601f82011682018060405250810190610fc391906133da565b6001600160e01b03191614610feb57604051634e46966960e11b815260040160405180910390fd5b505050565b3330148015906110105750336000908152600b602052604090205460ff16155b1561102e57604051631dd2188d60e31b815260040160405180910390fd5b838214611067576040517f266c51bb00000000000000000000000000000000000000000000000000000000815260040160405180910390fd5b8061107157600080fd5b60085460005b858110156112f75784848281811061109157611091613321565b90506020020160208101906110a69190612fee565b156111e3576110f78787838181106110c0576110c0613321565b6110d692602060609092020190810191506130f5565b8888848181106110e8576110e8613321565b905060600201602001356122d9565b81600101915086868281811061110f5761110f613321565b905060600201604001356000146111de576111286117b6565b6001600160a01b031663528c198a88888481811061114857611148613321565b61115e92602060609092020190810191506130f5565b89898581811061117057611170613321565b905060600201604001356040518363ffffffff1660e01b81526004016111ab9291906001600160a01b03929092168252602082015260400190565b600060405180830381600087803b1580156111c557600080fd5b505af11580156111d9573d6000803e3d6000fd5b505050505b6112ef565b6112078787838181106111f8576111f8613321565b90506060020160200135612486565b6000199091019086868281811061122057611220613321565b905060600201604001356000146112ef576112396117b6565b6001600160a01b031663ee7a7c0488888481811061125957611259613321565b61126f92602060609092020190810191506130f5565b89898581811061128157611281613321565b905060600201604001356040518363ffffffff1660e01b81526004016112bc9291906001600160a01b03929092168252602082015260400190565b600060405180830381600087803b1580156112d657600080fd5b505af11580156112ea573d6000803e3d6000fd5b505050505b600101611077565b50808211156113195760405163198353f160e11b815260040160405180910390fd5b600682905560088190556040517fe12b1187b552302833d30913c98376c2491a33ff74a01dcf02ad2fab87bfcd509061135b90889088908890889088906133f7565b60405180910390a1505050505050565b33301480159061138b5750336000908152600b602052604090205460ff16155b156113a957604051631dd2188d60e31b815260040160405180910390fd5b6001600160a01b0382166000818152600b6020908152604091829020805460ff191685151590811790915591519182527ffe08cf1b92a0c45ce7bdd0f10baef4dedff68a9a703c5afa3b34a907a36e6cce910160405180910390a25050565b3330148015906114285750336000908152600b602052604090205460ff16155b1561144657604051631dd2188d60e31b815260040160405180910390fd5b61144f8161255b565b50565b600a805461145f906134a1565b80601f016020809104026020016040519081016040528092919081815260200182805461148b906134a1565b80156114d85780601f106114ad576101008083540402835291602001916114d8565b820191906000526020600020905b8154815290600101906020018083116114bb57829003601f168201915b505050505081565b6005541561151a576040517f0dc149f000000000000000000000000000000000000000000000000000000000815260040160405180910390fd5b8661152457600080fd5b878711156115455760405163198353f160e11b815260040160405180910390fd5b89156116045760005b8a811015611602576115f98c8c8381811061156b5761156b613321565b905060200281019061157d9190613337565b61158b9060208101906130f5565b60008e8e8581811061159f5761159f613321565b90506020028101906115b19190613337565b6115bf906040810190613357565b8080601f01602080910402602001604051908101604052809392919081815260200183838082843760009201829052509250612169915050565b5060010161154e565b505b60008060005b8a8110156116de578b8b8281811061162457611624613321565b61163a92602060609092020190810191506130f5565b6001600160a01b0316836001600160a01b03161061166b576040516353c9973560e11b815260040160405180910390fd5b8b8b8281811061167d5761167d613321565b61169392602060609092020190810191506130f5565b92506116d28c8c838181106116aa576116aa613321565b6116c092602060609092020190810191506130f5565b8d8d848181106110e8576110e8613321565b6001918201910161160a565b506116e88761255b565b600160055560068990556007889055600881905561170860098787612b34565b50611715600a8585612b34565b5061171e612244565b600c5550505050505050505050505050565b3330148015906117505750336000908152600b602052604090205460ff16155b1561176e57604051631dd2188d60e31b815260040160405180910390fd5b60078190556040518181527f78e97fd6c4e47edda224812c2d4cee7539e4d88deaebb02eee99bac656dd2632906020015b60405180910390a150565b60606107506020612147565b6000806117cd600119368181013560f01c90030190565b6040013560601c92915050565b3360008181526003602090815260408083206001600160a01b03871680855290835292819020805460ff191686151590811790915590519081529192917f17307eab39ab6107e8899845ad3d59bd9653f200f220920489ca2b5937696c31910160405180910390a35050565b60608167ffffffffffffffff8111156118615761186161330b565b60405190808252806020026020018201604052801561189457816020015b606081526020019060019003908161187f5790505b50905060005b82811015610a0357600080308686858181106118b8576118b8613321565b90506020028101906118ca9190613357565b6040516118d89291906134db565b600060405180830381855af49150503d8060008114611913576040519150601f19603f3d011682016040523d82523d6000602084013e611918565b606091505b5091509150816119875760448151101561193157600080fd5b6004810190508080602001905181019061194b91906134eb565b6040517f08c379a000000000000000000000000000000000000000000000000000000000815260040161197e9190612cea565b60405180910390fd5b8084848151811061199a5761199a613321565b6020908102919091010152505060010161189a565b6119ba858585610d2a565b6001600160a01b0384163b15611a6b57604051630a85bd0160e11b808252906001600160a01b0386169063150b7a0290611a009033908a90899089908990600401613598565b6020604051808303816000875af1158015611a1f573d6000803e3d6000fd5b505050506040513d601f19601f82011682018060405250810190611a4391906133da565b6001600160e01b03191614611a6b57604051634e46966960e11b815260040160405180910390fd5b5050505050565b606060098054611a81906134a1565b9050600003611b4e576000828152600160205260408120546001600160a01b031690670de0b6b3a7640000611ab46117b6565b6040516370a0823160e01b81526001600160a01b03858116600483015291909116906370a0823190602401602060405180830381865afa158015611afc573d6000803e3d6000fd5b505050506040513d601f19601f82011682018060405250810190611b2091906135cb565b611b2a9190613610565b9050611b46611b37610744565b611b3f6117aa565b848461259c565b949350505050565b60098054611b5b906134a1565b80601f0160208091040260200160405190810160405280929190818152602001828054611b87906134a1565b8015611bd45780601f10611ba957610100808354040283529160200191611bd4565b820191906000526020600020905b815481529060010190602001808311611bb757829003601f168201915b50505050509050919050565b919050565b333014801590611c055750336000908152600b602052604090205460ff16155b15611c2357604051631dd2188d60e31b815260040160405180910390fd5b611c2b6117b6565b6040517fbedb86fb00000000000000000000000000000000000000000000000000000000815282151560048201526001600160a01b03919091169063bedb86fb90602401600060405180830381600087803b158015611c8957600080fd5b505af1158015611a6b573d6000803e3d6000fd5b600754421015611cd9576040517f8c7e9eb900000000000000000000000000000000000000000000000000000000815260040160405180910390fd5b6000611ce36117b6565b6001600160a01b03166318160ddd6040518163ffffffff1660e01b8152600401602060405180830381865afa158015611d20573d6000803e3d6000fd5b505050506040513d601f19601f82011682018060405250810190611d4491906135cb565b90506000805b84811015611f7f57858582818110611d6457611d64613321565b9050602002016020810190611d7991906130f5565b6001600160a01b0316826001600160a01b031610611dc2576040517e8c6e1300000000000000000000000000000000000000000000000000000000815260040160405180910390fd5b858582818110611dd457611dd4613321565b9050602002016020810190611de991906130f5565b91506000611ed98573eeeeeeeeeeeeeeeeeeeeeeeeeeeeeeeeeeeeeeee898986818110611e1857611e18613321565b9050602002016020810190611e2d91906130f5565b6001600160a01b031614611ed157888885818110611e4d57611e4d613321565b9050602002016020810190611e6291906130f5565b6040516370a0823160e01b81523060048201526001600160a01b0391909116906370a0823190602401602060405180830381865afa158015611ea8573d6000803e3d6000fd5b505050506040513d601f19601f82011682018060405250810190611ecc91906135cb565b611ed3565b475b8661267e565b90508015611f765773eeeeeeeeeeeeeeeeeeeeeeeeeeeeeeeeeeeeeeee878784818110611f0857611f08613321565b9050602002016020810190611f1d91906130f5565b6001600160a01b031614611f6c57611f673382898986818110611f4257611f42613321565b9050602002016020810190611f5791906130f5565b6001600160a01b0316919061269d565b611f76565b611f763382612732565b50600101611d4a565b50611f886117b6565b6040517fee7a7c04000000000000000000000000000000000000000000000000000000008152336004820152602481018590526001600160a01b03919091169063ee7a7c0490604401600060405180830381600087803b158015611feb57600080fd5b505af1158015611fff573d6000803e3d6000fd5b505050505050505050565b6000612014610ef9565b7fe32f2ba8b9b3e0864be593c2b91b536294416977b1dc2127f012a2a54cadc3958888888888886040516020016120519796959493929190613624565b604051602081830303815290604052805190602001206040516020016120a99291907f190100000000000000000000000000000000000000000000000000000000000081526002810192909252602282015260420190565b6040516020818303038152906040528051906020012090509695505050505050565b3330148015906120eb5750336000908152600b602052604090205460ff16155b1561210957604051631dd2188d60e31b815260040160405180910390fd5b612115600a8383612b34565b507ff7a3d508b2fe800e6ceb2f86e5ceb435c0903563d307ad4a7149ffb3651a6c0582826040516107389291906132f7565b60008061215e600119368181013560f01c90030190565b929092013592915050565b6000816121845760008084516020860187895af19050612193565b600080845160208601885af490505b806121ca576040517fd6bed87300000000000000000000000000000000000000000000000000000000815260040160405180910390fd5b6005805460010190556040516001600160a01b038616907f4a0de09071d37e2800c1dcc9027a0030cd5202f3a5a766952307470adc640c579061221090879087906133c1565b60405180910390a2949350505050565b600080612237600119368181013560f01c90030190565b6054013560c01c92915050565b60007f8b73c3c69bb8fe3d512ecc4cf759cc79239f7b179b0ffacaa9a75d522b39400f61226f610744565b80516020918201206040805192830193909352918101919091527fc89efdaa54c0f20c7adf612882df0950f5a951637e0307cdcb4c672f298b8bc660608201524660808201523060a082015260c00160405160208183030381529060405280519060200120905090565b6001600160a01b03821661230057604051634e46966960e11b815260040160405180910390fd5b6000818152600160205260409020546001600160a01b03161561234f576040517fddefae2800000000000000000000000000000000000000000000000000000000815260040160405180910390fd5b6001600160a01b03821660008181526020818152604080832080546001908101909155858452909152808220805473ffffffffffffffffffffffffffffffffffffffff19168417905551839291907fddf252ad1be2c89b69c2b068fc378daa952ba7f163c4a11628f55a4df523b3ef908290a46001600160a01b0382163b1561248257604051630a85bd0160e11b80825233600483015260006024830181905260448301849052608060648401526084830152906001600160a01b0384169063150b7a029060a4016020604051808303816000875af1158015612436573d6000803e3d6000fd5b505050506040513d601f19601f8201168201806040525081019061245a91906133da565b6001600160e01b0319161461248257604051634e46966960e11b815260040160405180910390fd5b5050565b6000818152600160205260409020546001600160a01b0316806124d5576040517f4d5e5fb300000000000000000000000000000000000000000000000000000000815260040160405180910390fd5b6001600160a01b038116600081815260208181526040808320805460001901905585835260018252808320805473ffffffffffffffffffffffffffffffffffffffff1990811690915560029092528083208054909216909155518492907fddf252ad1be2c89b69c2b068fc378daa952ba7f163c4a11628f55a4df523b3ef908390a45050565b6004805460ff19168215159081179091556040519081527f878ac8a2ca79520471f8f3c8494fa802c03ce3bf034252aad7f22318984fdbdb9060200161179f565b6060600085856125ab86612777565b6125b4866128df565b6040516020016125c79493929190613685565b60405160208183030381529060405290506000816040516020016125eb9190613916565b6040516020818303038152906040529050600061260782612962565b6040516020016126179190613a40565b6040516020818303038152906040529050612652888260405160200161263e929190613a85565b604051602081830303815290604052612962565b6040516020016126629190613b7c565b6040516020818303038152906040529350505050949350505050565b82820281151584158583048514171661269657600080fd5b0492915050565b60006040517fa9059cbb000000000000000000000000000000000000000000000000000000006000528360045282602452602060006044600080895af13d15601f3d116001600051141617169150600060605280604052508061272c576040517f90b8ec1800000000000000000000000000000000000000000000000000000000815260040160405180910390fd5b50505050565b600080600080600085875af1905080610feb576040517f23c133f200000000000000000000000000000000000000000000000000000000815260040160405180910390fd5b60408051602880825260608281019093526000919060208201818036833701905050905060005b6014811015610a035760006127b4826013613bc1565b6127bf906008613bd8565b6127ca906002613cdb565b6127dd906001600160a01b038716613610565b60f81b9050600060108260f81c6127f49190613ce7565b60f81b905060008160f81c601061280b9190613d09565b8360f81c6128199190613d2a565b60f81b905061282782612afe565b85612833866002613bd8565b8151811061284357612843613321565b60200101907effffffffffffffffffffffffffffffffffffffffffffffffffffffffffffff1916908160001a90535061287b81612afe565b85612887866002613bd8565b612892906001613d4d565b815181106128a2576128a2613321565b60200101907effffffffffffffffffffffffffffffffffffffffffffffffffffffffffffff1916908160001a90535083600101935050505061279e565b60608160000361292257505060408051808201909152600181527f3000000000000000000000000000000000000000000000000000000000000000602082015290565b604e6040519150808252608082016040525b821561295357600a808406603001828401529092049160001901612934565b604e8190039101908152919050565b6060815160000361298157505060408051602081019091526000815290565b6000604051806060016040528060408152602001613d8b60409139905060006003845160026129b09190613d4d565b6129ba9190613610565b6129c5906004613bd8565b905060006129d4826020613d4d565b67ffffffffffffffff8111156129ec576129ec61330b565b6040519080825280601f01601f191660200182016040528015612a16576020820181803683370190505b509050818152600183018586518101602084015b81831015612a82576003830192508251603f8160121c168501518253600182019150603f81600c1c168501518253600182019150603f8160061c168501518253600182019150603f8116850151825350600101612a2a565b600389510660018114612a9c5760028114612ac857612af0565b7f3d3d000000000000000000000000000000000000000000000000000000000000600119830152612af0565b7f3d000000000000000000000000000000000000000000000000000000000000006000198301525b509398975050505050505050565b6000600a60f883901c1015612b2557612b1c60f883901c6030613d65565b60f81b92915050565b612b1c60f883901c6057613d65565b828054612b40906134a1565b90600052602060002090601f016020900481019282612b625760008555612ba8565b82601f10612b7b5782800160ff19823516178555612ba8565b82800160010185558215612ba8579182015b82811115612ba8578235825591602001919060010190612b8d565b50612bb4929150612bb8565b5090565b5b80821115612bb45760008155600101612bb9565b6001600160e01b03198116811461144f57600080fd5b600060208284031215612bf557600080fd5b8135612c0081612bcd565b9392505050565b60008083601f840112612c1957600080fd5b50813567ffffffffffffffff811115612c3157600080fd5b602083019150836020828501011115612c4957600080fd5b9250929050565b60008060208385031215612c6357600080fd5b823567ffffffffffffffff811115612c7a57600080fd5b612c8685828601612c07565b90969095509350505050565b60005b83811015612cad578181015183820152602001612c95565b8381111561272c5750506000910152565b60008151808452612cd6816020860160208601612c92565b601f01601f19169290920160200192915050565b602081526000612c006020830184612cbe565b600060208284031215612d0f57600080fd5b5035919050565b80356001600160a01b0381168114611be057600080fd5b60008060408385031215612d4057600080fd5b612d4983612d16565b946020939093013593505050565b60008083601f840112612d6957600080fd5b50813567ffffffffffffffff811115612d8157600080fd5b6020830191508360208260051b8501011115612c4957600080fd5b60008060208385031215612daf57600080fd5b823567ffffffffffffffff811115612dc657600080fd5b612c8685828601612d57565b6020808252825182820181905260009190848201906040850190845b81811015612e0c578351151583529284019291840191600101612dee565b50909695505050505050565b80358015158114611be057600080fd5b60008083601f840112612e3a57600080fd5b50813567ffffffffffffffff811115612e5257600080fd5b602083019150836020606083028501011115612c4957600080fd5b600080600080600080600060a0888a031215612e8857600080fd5b612e9188612d16565b965060208801359550604088013567ffffffffffffffff80821115612eb557600080fd5b612ec18b838c01612c07565b9097509550859150612ed560608b01612e18565b945060808a0135915080821115612eeb57600080fd5b50612ef88a828b01612e28565b989b979a50959850939692959293505050565b600080600060608486031215612f2057600080fd5b612f2984612d16565b9250612f3760208501612d16565b9150604084013590509250925092565b600080600080600060608688031215612f5f57600080fd5b853567ffffffffffffffff80821115612f7757600080fd5b612f8389838a01612e28565b90975095506020880135915080821115612f9c57600080fd5b50612fa988828901612d57565b96999598509660400135949350505050565b60008060408385031215612fce57600080fd5b612fd783612d16565b9150612fe560208401612e18565b90509250929050565b60006020828403121561300057600080fd5b612c0082612e18565b600080600080600080600080600080600060e08c8e03121561302a57600080fd5b67ffffffffffffffff808d35111561304157600080fd5b61304e8e8e358f01612d57565b909c509a5060208d013581101561306457600080fd5b6130748e60208f01358f01612e28565b909a50985060408d0135975060608d0135965061309360808e01612e18565b95508060a08e013511156130a657600080fd5b6130b68e60a08f01358f01612c07565b909550935060c08d01358110156130cc57600080fd5b506130dd8d60c08e01358e01612c07565b81935080925050509295989b509295989b9093969950565b60006020828403121561310757600080fd5b612c0082612d16565b6000602080830181845280855180835260408601915060408160051b870101925083870160005b8281101561316557603f19888603018452613153858351612cbe565b94509285019290850190600101613137565b5092979650505050505050565b60008060008060006080868803121561318a57600080fd5b61319386612d16565b94506131a160208701612d16565b935060408601359250606086013567ffffffffffffffff8111156131c457600080fd5b6131d088828901612c07565b969995985093965092949392505050565b6000806000604084860312156131f657600080fd5b833567ffffffffffffffff81111561320d57600080fd5b61321986828701612d57565b909790965060209590950135949350505050565b60008060008060008060a0878903121561324657600080fd5b61324f87612d16565b955060208701359450604087013567ffffffffffffffff81111561327257600080fd5b61327e89828a01612c07565b9095509350613291905060608801612e18565b9150608087013590509295509295509295565b600080604083850312156132b757600080fd5b6132c083612d16565b9150612fe560208401612d16565b81835281816020850137506000828201602090810191909152601f909101601f19169091010190565b602081526000611b466020830184866132ce565b634e487b7160e01b600052604160045260246000fd5b634e487b7160e01b600052603260045260246000fd5b60008235607e1983360301811261334d57600080fd5b9190910192915050565b6000808335601e1984360301811261336e57600080fd5b83018035915067ffffffffffffffff82111561338957600080fd5b602001915036819003821315612c4957600080fd5b6000602082840312156133b057600080fd5b813560ff81168114612c0057600080fd5b828152604060208201526000611b466040830184612cbe565b6000602082840312156133ec57600080fd5b8151612c0081612bcd565b60608082528181018690526000908760808401835b8981101561344c576001600160a01b0361342584612d16565b1682526020838101359083015260408084013590830152918301919083019060010161340c565b508481036020868101919091528782529250820190508660005b8781101561348b5761347782612e18565b151583529183019190830190600101613466565b5050604093909301939093525095945050505050565b600181811c908216806134b557607f821691505b6020821081036134d557634e487b7160e01b600052602260045260246000fd5b50919050565b8183823760009101908152919050565b6000602082840312156134fd57600080fd5b815167ffffffffffffffff8082111561351557600080fd5b818401915084601f83011261352957600080fd5b81518181111561353b5761353b61330b565b604051601f8201601f19908116603f011681019083821181831017156135635761356361330b565b8160405282815287602084870101111561357c57600080fd5b61358d836020830160208801612c92565b979650505050505050565b60006001600160a01b0380881683528087166020840152508460408301526080606083015261358d6080830184866132ce565b6000602082840312156135dd57600080fd5b5051919050565b634e487b7160e01b600052601260045260246000fd5b634e487b7160e01b600052601160045260246000fd5b60008261361f5761361f6135e4565b500490565b8781526001600160a01b038716602082015285604082015260c06060820152600061365360c0830186886132ce565b93151560808301525060a0015295945050505050565b6000815161367b818560208601612c92565b9290920192915050565b7f3c7465787420646f6d696e616e742d626173656c696e653d226d6964646c652281527f20746578742d616e63686f723d226d6964646c65222066696c6c3d227768697460208201527f652220783d223530252220793d2239307078223e000000000000000000000000604082015260008551613709816054850160208a01612c92565b7f20000000000000000000000000000000000000000000000000000000000000006054918401918201527f28000000000000000000000000000000000000000000000000000000000000006055820152855161376c816056840160208a01612c92565b7f290000000000000000000000000000000000000000000000000000000000000091016056810191909152661e17ba32bc3a1f60c91b60578201527f3c7465787420646f6d696e616e742d626173656c696e653d226d6964646c6522605e8201527f20746578742d616e63686f723d226d6964646c65222066696c6c3d2277686974607e8201527f652220783d223530252220793d223132307078223e0000000000000000000000609e82015261358d61385f6138ed6138e76138728361385960b388017f3078000000000000000000000000000000000000000000000000000000000000815260020190565b8b613669565b661e17ba32bc3a1f60c91b815260070190565b7f3c7465787420646f6d696e616e742d626173656c696e653d226d6964646c652281527f20746578742d616e63686f723d226d6964646c65222066696c6c3d227768697460208201527f652220783d223530252220793d223135307078223e0000000000000000000000604082015260550190565b87613669565b7f204c6f6f742053686172657300000000000000000000000000000000000000008152600c0190565b7f3c73766720786d6c6e733d22687474703a2f2f7777772e77332e6f72672f323081527f30302f737667222076696577426f783d2230203020343030203430302220707260208201527f657365727665417370656374526174696f3d22784d6964594d6964206d65657460408201527f22207374796c653d22666f6e743a31347078207365726966223e3c726563742060608201527f77696474683d2234303022206865696768743d22343030222066696c6c3d226260808201527f6c61636b22202f3e00000000000000000000000000000000000000000000000060a082015260008251613a0c8160a8850160208701612c92565b7f3c2f7376673e000000000000000000000000000000000000000000000000000060a893909101928301525060ae01919050565b7f646174613a696d6167652f7376672b786d6c3b6261736536342c000000000000815260008251613a7881601a850160208701612c92565b91909101601a0192915050565b7f7b226e616d65223a220000000000000000000000000000000000000000000000815260008351613abd816009850160208801612c92565b7f222c2022696d616765223a2200000000000000000000000000000000000000006009918401918201528351613afa816015840160208801612c92565b7f222c20226465736372697074696f6e223a202254686520686f6c646572206f66601592909101918201527f2074686973204e4654206973206120636c7562206b6579207369676e65722e2260358201527f7d000000000000000000000000000000000000000000000000000000000000006055820152605601949350505050565b7f646174613a6170706c69636174696f6e2f6a736f6e3b6261736536342c000000815260008251613bb481601d850160208701612c92565b91909101601d0192915050565b600082821015613bd357613bd36135fa565b500390565b6000816000190483118215151615613bf257613bf26135fa565b500290565b600181815b80851115613c32578160001904821115613c1857613c186135fa565b80851615613c2557918102915b93841c9390800290613bfc565b509250929050565b600082613c49575060016106b6565b81613c56575060006106b6565b8160018114613c6c5760028114613c7657613c92565b60019150506106b6565b60ff841115613c8757613c876135fa565b50506001821b6106b6565b5060208310610133831016604e8410600b8410161715613cb5575081810a6106b6565b613cbf8383613bf7565b8060001904821115613cd357613cd36135fa565b029392505050565b6000612c008383613c3a565b600060ff831680613cfa57613cfa6135e4565b8060ff84160491505092915050565b600060ff821660ff84168160ff0481118215151615613cd357613cd36135fa565b600060ff821660ff841680821015613d4457613d446135fa565b90039392505050565b60008219821115613d6057613d606135fa565b500190565b600060ff821660ff84168060ff03821115613d8257613d826135fa565b01939250505056fe4142434445464748494a4b4c4d4e4f505152535455565758595a6162636465666768696a6b6c6d6e6f707172737475767778797a303132333435363738392b2fa2646970667358221220a9f43b993cc97f61e4abf6d1916407e2b2ad93b51270183b155452480211779864736f6c634300080d0033",
    "linkReferences": {}
  }
}